:020000040800F2
:100000000004002091010008054700089301000842
:100010009301000893010008930100089301000870
:100020009301000893010008930100089301000860
:100030009301000893010008930100089301000850
:100040009301000893010008930100089301000840
:100050009301000893010008930100089301000830
:100060009301000893010008930100089301000820
:10007000930100089301000893010008F55200085D
:100080009301000893010008930100089301000800
:1000900093010008930100089301000893010008F0
:1000A00093010008930100089301000893010008E0
:1000B0009301000893010008930100084D530008C4
:1000C00072B6244880F30888234880F30988022008
:1000D00080F31488BFF36F8F04F052F803F08FFCA5
:1000E0001E481F491B4A914202DA08600431FAE7B0
:1000F0001C49194A914202DA08600431FAE71A49A8
:100100001A4A1B4B9A4204DA086810600431043220
:10011000F8E700201749184A914202DA08600431D2
:10012000FAE704F031F804F02CF8144C144DAC420A
:1001300003DA216888470434F9E702F03DF8114CEE
:10014000114DAC4203DA216888470434F9E70F49BE
:100150000847000000040020000C002055555555AC
:100160000000002000040020105E0008000C0020A9
:100170002C0F0020300F002010240020C0000008A9
:10018000C0000008C0000008C00000088541000849
:1001900096E700F000F8FEE7F0B544464D465646B7
:1001A0005F46F0B46B46CB60C3689D46F0BCA0468A
:1001B000A946B246BB46F0BD62B6281CA047002047
:1001C00004F05AFAFEE704F0BDF9024A024B13604C
:1001D000FEE7C04604ED00E00000008002B4714676
:1001E00049084900095649008E4402BC7047C04680
:1001F00002B4714649084900095C49008E4402BCBA
:100200007047C04603B47146490840004900095A86
:1002100049008E4403BC7047002934D001230022DA
:1002200010B488422CD301242407A14204D2814275
:1002300002D209011B01F8E7E400A14204D2814285
:1002400002D249005B00F8E7884201D3401A1A4302
:100250004C08A04202D3001B5C0822438C08A04239
:1002600002D3001B9C082243CC08A04202D3001BEF
:10027000DC082243002803D01B0901D00909E3E769
:10028000100010BC704701B5002000F05FF802BDFF
:100290000029F8D003B5FFF7C1FF0EBC4243891A0D
:1002A0001847C046002941D010B404004C40A44671
:1002B00001230022002900D54942002800D54042F0
:1002C00088422CD301242407A14204D2814202D2C5
:1002D00009011B01F8E7E400A14204D2814202D2E5
:1002E00049005B00F8E7884201D3401A1A434C08E2
:1002F000A04202D3001B5C0822438C08A04202D318
:10030000001B9C082243CC08A04202D3001BDC083F
:100310002243002803D01B0901D00909E3E710009C
:100320006446002C00D5404210BC704701B5002047
:1003300000F00CF802BDC0460029F7D003B5FFF766
:10034000B3FF0EBC4243891A1847C0467047C046E7
:10035000002B11D1002A0FD1002900D1002802D092
:100360000021C943080007B4024802A140180290C6
:1003700003BDC046D9FFFFFF03B4684601B502982C
:1003800000F025F8019B9E4602B00CBC7047C046A9
:10039000F7B5019393B21F0084B2050C160C6B43A2
:1003A0006743754366433C0CF618A419A34202D96F
:1003B00080235B02ED18019B51434343260C7519C2
:1003C0002404BFB259184919E01903B0F0BDF0B5C3
:1003D00006000F0015001C0085B08B4264D801D1C7
:1003E000824261D82100280000F07AF8390000909C
:1003F000300000F075F8009B21001B1A1A0028003D
:10040000039300F061F800900191019BBB4245D835
:1004100002D1009BB34241D8009B019C01200021E6
:10042000039AF61AA74100F04FF804000D00039B51
:10043000002B2BD0019B009ADB0750081818019B5A
:100440005908039B9C46B9422BD801D1B04228D809
:1004500032003B00121A8B41012692185B410027A3
:10046000B6185F4101235B429C446346002BEAD1EE
:1004700030003900039A00F01BF8039AA4197D415B
:1004800006000F0000F020F8241A8D410A9B002B73
:1004900000D0C0C32000290005B0F0BD0024002515
:1004A000C5E7B6197F41DDE700240025EEE700002F
:1004B000D0400B00D1409C46203AD34018435242D2
:1004C00063469340184370479140030090409C4618
:1004D000203A9340194352426346D3401943704730
:1004E00010B5002903D100F007F8203002E0080021
:1004F00000F002F810BDC0461C2101231B049842E5
:1005000001D3000C10391B0A984201D3000A0839A4
:100510001B09984201D30009043902A2105C40185B
:100520007047C046040302020101010100000000FF
:10053000000000000123002808D1042906D80F2A52
:1005400004D80901024B89184900CB5A180070479A
:10055000A859000810B5FFF7EDFF10BD0120704746
:100560000120704710B5FFF7FBFF10BD0120704759
:100570000120704710B5FFF7FBFF10BD70477047B3
:1005800010B5FFF7FCFF10BD0120704770477047A2
:1005900013B5019110496B4609780090002915D1D7
:1005A0005B798B420DD08A420BD000F01FFD040016
:1005B0000100009800F0F2FC2000009901F030FBEF
:1005C00016BD009800F0FEFC0400F5E7009800F06E
:1005D0000DFD0099F2E7C046380F002010B5040069
:1005E000638800881B040A001843A188FFF7D0FF26
:1005F00010BD10B504000121FFF7F0FF2100FFF747
:10060000ADFF002806D001212000FFF7E7FF210001
:10061000FFF7A8FF10BD70B500210400FFF7DEFF53
:1006200005002100FFF7AAFF28002100FFF7A8FF1F
:1006300070BD70B501210400FFF7D0FF2100050057
:10064000FFF794FF002801D1002070BD2100280091
:10065000FFF790FF0028F7D02100280002F06EFC81
:100660000028F1D02100280002F0ECF80028EBD09F
:100670002100280002F0BCF80028E5D02100280065
:1006800001F0CAFB0028DFD02100280001F0D6FBD2
:100690000028D9D02100280001F0F2FBD5E7012382
:1006A000834010B598B200F0CCFB10BD10B504002B
:1006B0000120A04080B201F0B5F82000FFF7EFFF65
:1006C00010BD0120704710B5FFF7FBFF10BD10B53E
:1006D000040000F065FB2000FFF756FF2000FFF745
:1006E000F2FF10BD10B50120FFF7F1FF02F070FF1F
:1006F00010BD10B50020FFF7EAFF02F079FF10BD32
:1007000010B5FFF743FF02F068FE00F01CF810BDC3
:1007100010B500F01DF8FFF73AFF02F063FE10BDC0
:1007200001207047704770B5051CFFF7F9FF041EE4
:1007300002D0281CFFF7F6FF200070BD704710B5EF
:10074000FFF7F1FF10BD10B50020FFF7F8FF10BD57
:1007500010B502F057FCFFF7F2FF10BD10B502F024
:1007600051FC074B04001A78824207D0187002F03F
:10077000D1FE044B18602000FFF7E1FF10BDC0461A
:10078000300F0020340F002030B50B0A85B0DBB2EB
:100790006C4600900191002B01D000F0EDFE00238B
:1007A0006A46D381009B02AD0293A388AB80DBB283
:1007B000002B05D10298696800F03EFE05B030BDFF
:1007C0002800FFF716FF0028F4D1F7E7037910B5EA
:1007D000012B02D1008800F02BFC10BD10B50029C0
:1007E00004D002F083F902F049FA10BD02F0D2F908
:1007F000F9E7000010B5041E11D0031FDBB2A02BD7
:100800000ED802F08BFC002804D0200002F00CFD72
:1008100000F04CFF200002F0EBFC00F047FF10BDA1
:1008200003002033DBB2072B07D807230340012046
:100830009840C0B200F07AFEEFE703005B33DBB212
:10084000022B04D8243CA0B202F010FCE7E703001E
:100850005833DBB21A2B05D8074A5B00985A02F0CE
:100860001FFCDCE703003333DBB2122BD7D802F0D6
:100870003DF902F003FAD2E7485A000810B5002803
:1008800007D0031FDBB2A02B04D802F0CDFC00F090
:100890000DFF10BD03002033DBB2072B07D8072361
:1008A000034001209840C0B200F048FEEFE703008B
:1008B0005B33DBB2022B03D8002002F0D7FBE8E762
:1008C00003005833DBB21A2B03D8002002F0E8FBF8
:1008D000DFE703003333DBB2122BDAD802F05AF928
:1008E00002F0CCF9D5E7000070B504000D00FFF769
:1008F00081FF0120002D0ED000230A4A280000218C
:10090000FFF746FD0023084A80185941FA220023C8
:100910009200FFF71DFD03F0B4FE2000FFF7AEFFCD
:1009200070BDC046A0860100E7030000002110B59D
:10093000392800D15031FFF7D7FF10BD10B500287E
:1009400003D000F0F3FD00F0B1FE10BD10B500289B
:1009500003D000F0F3FD00F0A9FE10BDF0B585B0A6
:1009600086790C1C4579029000F0D0FD36062304F0
:10097000360F01900393002828D00195002D25D033
:1009800023041B0E0F221900914340290FD0E1B21E
:100990000A0000202032D2B20190072A16D91F2265
:1009A0009343202B03D1012910D986420ED0002277
:1009B000A64B01925B785B0708D5022000F0B0FEE1
:1009C00000F0A4FD01234340DBB201932304180F80
:1009D0000B283ED8FFF716FC0C000C005700570000
:1009E000B400C8003D003D00CD0026013C013C01A3
:1009F00026052304360F1B0E0F2B00D93601E4B257
:100A0000002D12D0002E0BD023002033DBB230009B
:100A1000072B01D9002C05D100F088FD00F046FE1F
:100A2000200051E000F098FDF8E72000FFF726FFD6
:100A3000AE420ED023002033DBB23000072B01D9A9
:100A4000AC4202D100F07AFD01E000F08DFD00F033
:100A50002DFE019B002B00D1ADE000F04FFD0123E6
:100A600002001A40184200D0A5E0029B5A7100F023
:100A70003FFD00F025FA029800F05AF900F038FD29
:100A800000F02AFA97E00F22230427051B0E3F0FE0
:100A90009343202B00D03F01E4B2002C06D0012C60
:100AA00036D0002D3FD0002E1CD0B9E7674B5B78C5
:100AB0005B0713D4A5420AD0A74204D0380000F047
:100AC00035FD00F0F3FD0020FFF794FEC1E728009C
:100AD000FFF7D4FE002FBCD03800B3E7002D0BD0B9
:100AE000002E03D13800FFF729FFB2E7012EB0D165
:100AF000380000F061FDACE7AE42AAD13800FFF744
:100B000025FF380000F066FD380000F041FDA0E749
:100B1000002D02D0052E9CD8E4E7042E99D8380089
:100B2000FFF714FF95E7AE42F9D00120392C01D12F
:100B3000FA20400103F0A5FD2000FFF79FFE88E7A3
:100B40002005800F09D0012883D10020854201D0E3
:100B5000A005800D02F0A4FA7BE7854201D0A00534
:100B6000800D02F083FA74E72900E0B2FFF736FE49
:100B70006FE723049B019B0F28D19D4217D12306C9
:100B80005B0F9B002207DBB2120F9A40E10602D5F1
:100B90000F259D40ED4324051543A40FA8B2022C58
:100BA0000ED0032C0FD0012C07D000F059F902F021
:100BB00029FAFFF7C4FD05B0F0BD00F047F9F6E7EC
:100BC00000F058F9F3E700F03CF9F0E7A3059A0FBD
:100BD000002D1BD0D207EAD523065B0F9B0022070E
:100BE000DBB2120F9A400020E10602D50F30984088
:100BF000C04324051043A40F80B2022C0CD0032C58
:100C00000DD0012C05D000F089F9D0E7012ACED90A
:100C1000E2E700F079F9CAE700F08AF9C7E700F0E7
:100C200039F9C4E7E6B22405240F002D06D02000D0
:100C300000F046F93000FFF781FEB8E73000FFF71B
:100C400085FE200000F048F9B1E7C046EE22002002
:100C5000E7B23800F03804283CD8FFF7C9FA03247B
:100C60000F162000002D06D0042EA0D8E004C00EE0
:100C700000F03EF99BE7052E99D8F7E7E004C00E97
:100C8000002DDFD100F01CF991E7002D04D0E00425
:100C9000C00E00F00EF98AE700F006F987E71B4B5B
:100CA0005B785B0704D4E004C00E002DCAD0E9E7EE
:100CB000002D05D0E0040321C00E00F00FFD76E703
:100CC000012000F02DFD012E00D870E7022000F079
:100CD00027FD6CE7002D08D0002E03D03800FFF769
:100CE00089FD64E7E004C00ECCE7AE420AD00120E3
:100CF000392F01D1FA20400103F0C3FC3800FFF77F
:100D0000BDFD54E7E004C00E9CE7C046EE22002083
:100D100070B504002188407900F094F9051C00F0BA
:100D200011F900F08DF8291C2000FFF717FE70BDA7
:100D3000037910B50400002B11D0FFF77AFC0028CE
:100D40000ED100F0E3FB002809D06379002B06D018
:100D5000074B5B785B0702D5022000F0E1FC10BD79
:100D60002000FFF7D5FF2000FFF755FCF7E7C0464E
:100D7000EE22002010B5002002F078F9002002F0E9
:100D80008FF900F0F9FB00F091FC01F095FF01F004
:100D900075FF10BD10B502F063FAFFF7EBFF10BD51
:100DA00010B500F0D3FBFFF7F5FF10BDC2B2000491
:100DB000000F062817D00F2306280DD80E30034049
:100DC0000020012B07D80120F02A04D006D80020EB
:100DD000E7239342404170470630F0E7F43A50422F
:100DE0005041C0B2F7E71000F13843425841E721C3
:100DF000002391425B411843EDE703000279002094
:100E000010B5824204D0188800F012F9FFF7CEFF27
:100E100010BD82B002B0704782B002B07047704718
:100E200010B5FFF7FCFF10BD7047000010B5FFF7CD
:100E3000FBFFFFF7F5FF014B188010BD640F00208A
:100E4000704710B5FFF7F2FF10BD0000034B10B55F
:100E50001B88184380B2FFF7E9FF10BD640F002024
:100E600010B5034B1B881840FFF7E0FF10BDC046CC
:100E7000640F0020034B10B51B88584080B2FFF769
:100E8000D5FF10BD640F0020704710B5FFF7FCFFC1
:100E900010BD704710B5FFF7FCFFFFF7F6FF014BE1
:100EA000188010BD620F002010B50020FFF7F2FF80
:100EB00010BD0123834010B598B2FFF7EBFF10BDC2
:100EC00001238340034A10B51288134398B2FFF7F9
:100ED000E1FF10BD620F002001238340034A10B5DB
:100EE0001088984380B2FFF7D5FF10BD620F002035
:100EF00001238340034A10B51288534098B2FFF78C
:100F0000C9FF10BD620F0020034B10B51B881843AA
:100F100080B2FFF7BFFF10BD620F002010B5034B7A
:100F20001B881840FFF7B6FF10BDC046620F0020B7
:100F3000034B10B51B88584080B2FFF7ABFF10BDC4
:100F4000620F0020704770B50125CB089B00D218B6
:100F500007232E0019408E4000210300CB40545C33
:100F60002B405B42634033405C40545401310429C0
:100F7000F3D170BD30B5072400220440C0088000C2
:100F80000918012510008B5CE3402B40934001328F
:100F90001843C0B2042AF6D130BD000007B5030AD9
:100FA00001AADBB210800800042B07D811780F29A2
:100FB00004D81B01024AC918FFF7C5FF07BDC04688
:100FC000390F002007B5030A01AADBB21080002008
:100FD000042B07D812780F2A04D81B010249D01815
:100FE000FFF7C8FF0EBDC046390F0020F7B50F242C
:100FF00001270D4B0D4A1B88128801AE13439BB28B
:1010000030800093009B23413B4204D1013CF9D244
:1010100000252800FEBDE5B22800316800F010FE72
:1010200080B20128F2D0F4E7620F0020640F0020A4
:1010300007B501AB18800198FFF7D8FF019900F0C0
:10104000FFFD0EBD13B501AB19800E4B1B78002BB5
:1010500003D00198FFF7ECFF16BD98420CD0019821
:10106000FFF7C4FF040001000198FFF797FF20007D
:10107000019900F0E5FDEFE70198FFF7A3FF0400F9
:10108000F5E7C046380F002070B507250B4B1C78DC
:101090000B4B1B78A34200D170BD0A4BE200D15A22
:1010A0009B1858889A8800040843D9880134090499
:1010B0001143FFF7B1FE2C40EAE7C046660F00205F
:1010C000670F0020680F0020064B10B558881A885B
:1010D000D988000410439A8809041143FFF79CFE45
:1010E00010BDC046A80F0020F7B51D4883790F2B0F
:1010F00031D84379002B2ED01A4A1B4B12781B781B
:10110000019245780678194C019A934223D0D90070
:101110000A191779002F1FD05778AF421CD1095DEB
:10112000B14219D15179002916D147885188BC465E
:101130006746C91B89B2C7290ED80F2410218379AD
:1011400023400B4383719379234019439171FFF737
:10115000EFFDFFF799FFF7BD072201331340D3E7F7
:10116000A80F0020670F0020660F0020680F0020E6
:10117000F7B50E4C0E4B24781B7801940D4C019D55
:10118000AB4201D10020FEBDDE00A5196F788F4271
:1011900005D1365D864202D16D79954203D107258E
:1011A00001332B40EBE70120EDE7C046670F00203D
:1011B000660F0020680F0020F0B5050089B00622F8
:1011C000010004A804F0E6FB9A4C6E7923792A7991
:1011D000002B18D19A4200D1DDE09E4200D11FE1E0
:1011E0002800FFF70AFE002800D119E10822290093
:1011F000200004F0CFFB2000FFF7E8FAFFF774FFB0
:10120000FFF762FFC7E06B882F7803936379039938
:1012100002936388CB1A02999BB2002900D1D1E0D6
:10122000C72B00D991E0002A00D1B4E06B78627836
:101230000193A37901990F2B57D8914214D12278A9
:10124000BA4211D1002E4AD10F221340013213436A
:10125000A371FFF739FF2000FFF76AFDA379AB7197
:101260000024200009B0F0BD002E38D132000199D1
:101270003800FFF77DFF320038000199FFF778FF53
:101280000400B042ECD10498FFF7D2FEC3B20004D0
:101290000F21020F032A08D8012A0FD9000E01429C
:1012A00011D0AA790F2A0ED8DBE706320A40012AAC
:1012B0000ED92800FFF73CFD029CD2E7000E014248
:1012C00001D0002BCDD02033DBB2072BC9D9F0E7FA
:1012D000EF2BC6D90F33DBB2022BC2D9E9E70123CA
:1012E000544A91790B439371BAE791420ED1227817
:1012F000BA420BD1002E09D1AB712800FFF718FDBF
:1013000008222900200004F045FB79E72800FFF7B8
:1013100074FD002800D183E0002E00D180E0454B11
:101320009A791F2A0BD9198806A801800399418050
:101330001B798271037100234371FFF7F9FC0822C6
:1013400029003C4804F026FB58E7A3790F2B0ED860
:1013500004980599FFF75DFD2000FFF7E9FC0822DE
:101360000021200004F00EFBFFF7AEFE78E7002A14
:1013700011D061786A7891420FD12278BA420CD1AB
:10138000002E0AD12800AB71FFF7D2FC08223100F1
:10139000200004F0F7FA012463E72800FFF72DFD91
:1013A00000283DD0002E3BD0A3791F2BC7D922881F
:1013B00006A80280039A428022798371027100227A
:1013C0004271BAE7C72B2FD88A42E4D08E4227D089
:1013D00062786B789A421AD12378BB4217D1A379ED
:1013E000DA070ED40F2B0CD90F22AB719343F02BDD
:1013F00083D00F21AB791A09013212010B4013433C
:101400007AE708222900200004F0C4FAC3E7280084
:10141000FFF7F3FC002892D10123A2791343A371B3
:101420002800FFF785FCB6E704980599FFF7F1FC63
:1014300095E7C046A80F0020F0B585B0009068463B
:101440006C460191FFF7B8FE2379071E244E254D07
:101450000CD0002B03D000980199FFF7DDFC072783
:1014600028783378834222D105B0F0BD02AA03CC9C
:1014700003C2BB42F3D0072233785C1C14402A78A5
:1014800094420AD01848DB000822C01802A904F0D0
:1014900081FA3470FFF7F8FDE1E7FFF781FC0822DD
:1014A0003900124837702F7004F06CFAD7E70E4CF1
:1014B000C0000019FFF780FE0028D5D02B78DB0094
:1014C0001A5BE4186088E188A388000409041943C2
:1014D0001043FFF7A1FC2B7801333B402B70BFE793
:1014E000670F0020660F0020680F0020A80F002063
:1014F000014B1878C0087047D80F00200720024B16
:101500001B7818407047C046D80F00200720034BB7
:101510001B781840431E9841C0B27047D80F002076
:10152000014B18787047C04604100020024B1A780F
:10153000104318707047C04604100020024A137808
:10154000834313707047C046041000200022014BF3
:101550001A70704704100020024B1A78104318705C
:101560007047C04603100020024A1378834313706B
:101570007047C046031000200022014B1A707047CC
:1015800003100020704710B5FFF7FCFF10BD0000EE
:1015900010B5054A1378184204D08343180013701D
:1015A000FFF7F1FF10BDC046D90F0020704710B5FE
:1015B000FFF7FCFF10BD0000010010B5044A1378CE
:1015C0001940814203D003431370FFF7F0FF10BDB1
:1015D000DA0F002010B5054A1378184204D083436F
:1015E00018001370FFF7E3FF10BDC046DA0F0020AC
:1015F00010B5044B1A78002A03D000201870FFF7AA
:10160000D6FF10BDDA0F002010B5094A094B147837
:101610001B781C43084BE4B21B78002B06D01C43FC
:1016200001F058FD002801D0FFF7E2FF200010BDB7
:101630000410002003100020DA0F002070B50B4CBE
:101640002568FFF7E1FF2870246808222000084978
:1016500004F08AF9002807D008222100044804F089
:1016600099F9200001F0DAFC70BDC046040C00209E
:10167000D00F002070B50B4C2568FFF7C5FF6870D0
:10168000246820222000084904F06EF9002807D0C1
:1016900020222100044804F07DF9200001F0CAFC5A
:1016A00070BDC046000C0020B00F002010B501F046
:1016B000A1FC002806D0054B1B787F2B02D9FFF731
:1016C000D9FF10BDFFF7BAFFFBE7C046EE220020AE
:1016D000704710B5FFF7FCFF10BD0000094B10B5B7
:1016E0005B785B070AD5084CC30019432170FFF7EC
:1016F000E7FB2078C008FFF7ECFF10BDFFF7E0FB29
:10170000FBE7C046EE220020D80F0020002010B5D5
:10171000024B1870FFF7DDFF10BDC046D80F002048
:1017200010B5094A13781900814311704A070AD18C
:10173000994208D0054B5B785B0704D5C808FFF7D2
:10174000CBFBFFF7E3FF10BDD80F0020EE220020F7
:101750000A4910B54B785A07D20F82420CD00122A9
:101760000240042092008343134308004B7000F0B2
:1017700061F80220FFF7D4FF10BDC046EE22002022
:10178000044B10B5587801234007C00F5840FFF7AD
:10179000DFFF10BDEE22002010B50120FFF7D8FFBB
:1017A00010BD10B50020FFF7D3FF10BD10B500200D
:1017B00000F0D5FB10BD10B5002000F0CAFBFFF70C
:1017C000F5FF10BD07B500F079FB00F089FB6A4614
:1017D00000236846137000F09EFB0120064B188022
:1017E00000F0A4FBA0236A465B0101A8938000F0EF
:1017F000AAFBFFF7E0FF07BD640F002010B5FFF75D
:10180000E1FF10BD10B500F073FB10BD10B500F086
:101810005BFB10BD10B500F077FB10BD10B500F0FC
:1018200080FB10BD10B500F081FB10BD10B500F0BD
:1018300083FB10BD10B500F086FB10BD10B500F0A5
:1018400094FB10BD70470000F7B501F0A1FE094DF3
:1018500006002B8883420BD06C460027278001F0BE
:1018600097FEA780608000980199FEF78DFF2E807B
:10187000F7BDC0460610002010B501F04BFE024B2C
:101880001860024B186010BD0C10002008100020DA
:101890007047704710B5FFF7FCFF10BD704710B5DB
:1018A000FFF7FCFFFFF7F6FF10BD704710B5FFF71D
:1018B000FCFF10BD704710B5FFF7FCFFFFF7F6FF08
:1018C00010BD01207047000010B5054800F056FB20
:1018D00000F096FEFFF7DCFFFFF7E1FF10BDC0460A
:1018E000151E00080120704710B5FFF7FBFF10BD63
:1018F00070477047704710B5FFF7FAFFFFF7F9FF21
:10190000FFF7F8FF10BD000010B5FFF77FFF0028BC
:1019100001D1FFF773FF0848FFF77CFF0748FFF787
:1019200085FFFFF77BFFFFF78CFA054B1888FFF761
:10193000ACFAFFF787FF10BD10100020EE22002048
:10194000620F002010B501F0E1FD00F0BDFBFFF7D4
:10195000DBFF01F04DFBFEF7F1FEFFF7ACFF10BD22
:10196000F0B589B0FFF7ADFF002809D1FFF76CFF94
:1019700001F03FFB01F0CAF9FEF7F0FE09B0F0BD3F
:1019800000F0B8FB314F00243D0020000134E4B2E8
:101990002E8800F003FB052C54D002358642F4D08B
:1019A0002B4B1B789B0701D500F0FEFAFFF79CFF3D
:1019B00000240590200000F0F1FA3B88020002901C
:1019C000984237D05A400123002504920193019B8D
:1019D000049A13409BB2002B23D0029A019B134020
:1019E0009BB25A1E9341DBB20393059B002B13D08D
:1019F0002900200001F014FD00280DD106AE35703D
:101A0000747001F0C5FD01233371039B7080737105
:101A100006980799FEF7B8FE29002000039A01F006
:101A20000BFD019B01355B00EDB20193102DCED172
:101A3000029B3B800134E4B20237052CBAD1FFF798
:101A40001BFF95E78642ABD190E7C046E422002019
:101A50001010002070B500F0FDF8A4230400DB0195
:101A600098424BD2A023DB01984200D39BE0DF28B1
:101A70001BD8CC2858D8A7280AD8A42800D976E0A3
:101A800001282FD0031F9BB2A02B2BD9002429E0C3
:101A90000300A83B9BB21A2BF8D85834514BE4B240
:101AA0006400E35A8824E4013EE08023DB0198428D
:101AB0001AD28026B601B04200D384E0E72811D9BB
:101AC000431EFF3B013EFF3E9BB2B342DED2000A03
:101AD000C0B200F051F90502E0B200F0BBF83540A9
:101AE00028430400201C70BDC0B200F0B3F8F023FE
:101AF0001B0123403C4C18430443F3E7A523DB01BF
:101B000098421DD2394B98423AD8394B98420DD859
:101B1000384B98422FD80322C4B2A3081440023A8B
:101B2000A2405B01344C13431C43DBE70321012239
:101B300001408A40C3065B0F5B01304C1343F3E75F
:101B40002F4B984207D81F202E4B20409C4221D873
:101B50002D4C0002D0E72D4BC3189BB21F2B00D990
:101B600094E7F82203025201294C1340DCE780235A
:101B7000243CDB01D8E71F230340264C1B02D3E79C
:101B80000321012201408A40C3065B0F5B01224C06
:101B90001343C9E700F0F0F8F823802400025B014A
:101BA0001840A401A8E71F20204000F0E5F8E30555
:101BB0001B0F02001B02C00602D5FF2112010A40C2
:101BC000164C1343B0E7C004C00E00F0D5F8050270
:101BD000E0B200F03FF8F82334005B011D400543FC
:101BE0002C437FE77E5A000800A0FFFF5F520000F1
:101BF0003F5200001F520000008DFFFF008CFFFFCE
:101C0000BF5200009F520000F4A0FFFF40ADFFFF55
:101C1000F0A0FFFFF1A0FFFF008AFFFF0090FFFF91
:101C200007B50B0A01AA1180D9B20023042905D8EF
:101C300012780F2A02D8FEF78DFC030018000EBDA3
:101C400007B501AB19800199FFF7EAFFFFF702FF23
:101C50000EBD0000030010B5E7280AD8DF280AD817
:101C6000312800D173E00FD8292866D02A2800D166
:101C700074E0180010BDE0380728FAD8FEF7AEFA75
:101C800018F927303DF9474C392808D0822806D06A
:101C90003528EED1374A12789206EAD506E0354A61
:101CA0001178890761D152781207E2D52923E0E73C
:101CB00030480121027814000C400A4245D1407896
:101CC0000142D6D02300D206D3D4E323D1E7294A58
:101CD00012785107CDD50023D206CAD4E333C8E722
:101CE0002449E2230A785007C3D40120040049782C
:101CF000023B0C400842E5D0BBE71E4A51788907F9
:101D0000B7D512780023D206B3D4E733B1E7194A26
:101D100012781107F6D4ACE71649E6230A781007C3
:101D2000A7D4022004004978023B0C400842A0D10D
:101D30002300D2069DD4E7239BE70E4A117889063B
:101D400015D45278120700D493E7392391E7094A52
:101D50001278520600D48CE72A238AE7054A1278C3
:101D6000520600D485E7312383E7E02381E735235A
:101D70007FE7C046EE22002030B5254C21784B0786
:101D80000DD514220240043A53425A41182303400D
:101D9000083B5D426B419A4201D00C2358400B072F
:101DA0000DD514220240143A53425A4118230340DD
:101DB000183B5D426B419A4201D00C235840647835
:101DC000E3070DD511220240013A53425A4118232C
:101DD0000340083B5D426B419A4201D009235840C1
:101DE000A4070DD511220240113A53425A4118233B
:101DF0000340183B5C4263419A4201D0092358409A
:101E0000C90603D5030701D51823984330BDC04642
:101E1000EE22002000207047074B10B5C3180124A4
:101E20001F2B06D84C79002C03D11F231840FEF736
:101E30003DFC200010BDC04620ADFFFF4B7910B522
:101E4000002B14D00B4A90420ED00B4A904204D083
:101E50000A4A904205D0180010BDFFF791FC0023FC
:101E6000F9E7FFF799FCFAE7FFF79BFCF7E7012397
:101E7000F1E7C0465B7C00005C7C00005A7C0000FF
:101E80004B7910B5002B12D00A4A90420CD00A4A66
:101E9000904207D0033A904202D1FEF723FC002380
:101EA000180010BDFFF7AEFCFEF723FCF7E7012397
:101EB000F6E7C046017C0000037C000010B500205E
:101EC00000F0A2FB10BD000010B5002000F096F954
:101ED000024BC01843425841C0B210BD1D01FFFF64
:101EE00010B50020014900F0C5F910BDE3FE000067
:101EF00010B5002000F088FB0020024900F0BAF97C
:101F000010BDC046FFFF000010B50400022000F025
:101F100069F9207010BD10B50178022000F09EF91B
:101F200010BD10B5032000F05DF910BD10B5C1B2B1
:101F3000032000F093F910BD10B50400042000F058
:101F40005DF9208010BD10B50188042000F092F9E1
:101F500010BD10B501000F2000F098F910BD10B5AC
:101F60000100132000F092F910BD10B501000E2001
:101F700000F074F910BD002070470000014B18609C
:101F80007047C046080C0020704710B5FFF7FCFFF3
:101F900010BD704710B5FFF7FCFF10BD014B4000AE
:101FA000C05A7047FA220020704710B5032002F093
:101FB00068FB10BDC046C046C046C046C046C046CD
:101FC000C046C046C046C046C046C046704710B571
:101FD000FFF7EBFF10BD10B572B60F230200012111
:101FE0001A4091409843202203F0DFF862B610BDFA
:101FF00070B50A4C0A4D2068431C01D0FFF7EBFF77
:102000000434AC42F7D1074C074D2068431C01D083
:10201000FFF7E1FF0434AC42F7D170BDF45A000879
:10202000085B0008B45A0008F45A0008F7B5244BBE
:102030008A00D3580D0001905A1C3FD072B601247B
:102040000F2726001A003B409E40BA430092310001
:102050002200009803F0A9F8009B5E8362B6FFF7A8
:10206000A9FF00261022A446164800230168009309
:102070004B1C09D00B00BB431B693940CB40614668
:102080000B40013B23400093009B013A1E43D2B218
:10209000B6B264000430002AE7D1094BAA00D05838
:1020A000431C01D0FFF797FF31004B1E99412800D8
:1020B000C9B2FFF78CFF019B6D005E53F7BDC046B0
:1020C000F45A0008B45A000810B5FFF791FF0A222D
:1020D0000021064803F056FC0A220021044803F0C0
:1020E00051FC00F037F8FFF750FF10BDFA22002036
:1020F000F022002030B585B00A22002101A803F0AB
:1021000041FC00242100013401A8E4B2FFF78EFF56
:10211000052CF7D10A220D4801A903F025FC050082
:102120006B1E9D41EDB2002804D00A22074801A988
:1021300003F030FC2A000649044800F00DF80400C2
:10214000FFF728FF200005B030BDC046F022002078
:10215000FA22002070470000F7B50700141E124D48
:10216000019107D001232B7001F0D4F90F4B1860B7
:102170000020FEBD2E789642FAD00C4B186801F074
:1021800070F90428F4D90A223900019803F0ECFB15
:10219000002805D00A223900019803F0FBFB340027
:1021A000002320002B70E4E71810002014100020FA
:1021B00010B5FFF7D5FB10BD10B501F071F901F0B6
:1021C0002CFCFFF781FB01F02DFCFFF7BBFB01F0BE
:1021D00037FC01F03DFCFFF7EBFF01F057FCFFF788
:1021E0008AFBF6E713B56B46DC1D002301000122D4
:1021F0002000237000F00CFA207816BD13B56B4652
:102200009C1D0023010002222000238000F000FA20
:10221000208816BD002307B5010001A80422019300
:1022200000F0F6F901980EBD07B56B46D971012291
:102230000100D81D00F024FA07BD07B56B46D98010
:1022400002220100981D00F01BFA07BD07B5042209
:102250000191010001A800F013FA07BD70B50D004F
:102260000400FFF7BFFFA84203D029002000FFF7BA
:10227000DBFF70BD70B50D000400FFF7BFFFA84283
:1022800003D029002000FFF7D8FF70BD70B50D0006
:102290000400FFF7BFFFA84203D029002000FFF78A
:1022A000D5FF70BD10B500F08BFA094C094800F05D
:1022B00043FA094800F040FA200000F03DFA0748D0
:1022C00000F03AFA00F08CFA054B1C6010BDC046D5
:1022D00000F0010800E0010800E8010800F801082A
:1022E0001C100020012398430C4B70B5C5182B8897
:1022F0000B4A002693420FD10A4A0536145AE4438A
:10230000A4B29C4208D000F05BFA2100280000F043
:1023100033FA060000F064FA300070BD00E00108F6
:10232000FFFF00002010002070B50526FFF7BAFF60
:102330000B4C00F045FA0B4D2988002907D0C94302
:10234000200089B200F018FA052800D00600064BDC
:10235000023402359C42EFD100F042FA300070BDE9
:1023600000E001082010002000F00108F8B51C4B27
:102370001C5A012C0FD802221A4D63031D43ADB223
:10238000194B1A4E9B1A32689A420AD9FFF7CCFFB2
:1023900004002000F8BDE0258038042280B22D0220
:1023A000EEE7470800F00CFA30682F43831C390031
:1023B000336000F0E1F9E02307001B029D4203D0E7
:1023C0003C0000F00DFAE4E7E143306889B2831C79
:1023D000336000F0D1F904000528F2D1F0E7C046DF
:1023E000201000200080FFFF000002081C100020C9
:1023F00070B50D4C0D4B226805009A4204D9FFF7C9
:1024000093FF0400200070BD00F0DAF9084B20684B
:10241000595D2D022943831C89B2236000F0ACF979
:10242000040000F0DDF9EDE71C100020FFFF0108BB
:1024300020100020234AF0B51400234B23481988AC
:102440000233C943118002328342F8D18022C02571
:10245000D20194460127ED011A881D498A4209D00C
:1024600011B21C4800290ADB110A62541E00B31C79
:102470008342F1D98020184A40011360F0BD110059
:102480002940A94211D19E1C864218D85988C943B7
:1024900089B20029EBD0114B52001A4080328023C0
:1024A0005B019A42E3D2A152E1E761460A42DDD1E3
:1024B0000A4E51135200324039401E00EFE73300FC
:1024C000D8E7C0462010002000E0010800F0010815
:1024D000FFFF0000FFFF01081C100020FE3F00006E
:1024E00010B5FFF7DFFEFFF7A5FF10BD802310B585
:1024F0005B01040007209C4210D20C4B00201A19EB
:102500001B5D8B420AD020001170FFF7EBFE002804
:1025100004D17F2C03D82000FFF76AFF10BD0123F0
:1025200020009843FFF722FFF8E7C0462010002064
:10253000F8B5802304000D0007205B019C4211D2F6
:102540000123200018401C420DD02000C9B2FFF723
:10255000CDFF01340600290AA0B2FFF7C7FF052806
:1025600000D13000F8BD124B1E5BB142FAD0200002
:102570001953FFF7B7FE0028F4D17F2C14D8F2B21C
:10258000EBB205279A4203D02000FFF731FF070086
:10259000360A2D0AAE4205D00134A0B2FFF728FF5B
:1025A0000528DFD13800DDE72000FFF7DFFED9E79F
:1025B000201000208022FF235201904201D2024BC2
:1025C0001B5C18007047C04620100020084B984242
:1025D0000BD8084B1B18C20705D5074A125C1878A0
:1025E0001202104370471888FCE70448FAE7C04617
:1025F000FE0F00002010002021100020FFFF00002F
:1026000010B5FFF717FF10BD10B5FFF769FF10BD3C
:10261000F0B506000C00150085B0002A08D0CB07E5
:1026200006D588B2FFF7C6FF013D30700134013690
:102630000123370033400293631901950393019BF3
:10264000012B0AD86F087F00BD4204D0E01980B288
:10265000FFF7B0FFF05505B0F0BD039B019A981A43
:1026600080B2FFF7B3FF029B002B05D13880019B9E
:102670000237023B0193E2E73870000A7870F6E710
:10268000F8B506000C00151E08D0CB0706D501785A
:10269000A0B2FFF72BFF013D013601342F00012FBF
:1026A00009D86B085B009D4204D0E018F15C80B251
:1026B000FFF71CFFF8BD7319DB1B59781A786019F6
:1026C000C01B0902114380B2FFF732FF023FE6E769
:1026D0000122094B1000D96811420CD1D968901819
:1026E000490708D4D9688018C90604D4DB680230C9
:1026F0001340C01AC0B270470020024037B5040032
:10270000FF25FFF7E5FF012811D1002C01D105308D
:102710003EBD002301930195019B002B03D1FFF7E0
:10272000D7FF013CEFE7019B013B0193F4E7002C4D
:10273000EED10620ECE7000070B506000C48FFF76C
:10274000DDFF052813D102250A4C094823692B43D4
:10275000236140236661226913432361FFF7CEFFA3
:10276000062802D02369AB4323613423E36070BDA4
:10277000FF0F000000200240F8B5F8231B06C21826
:102780000D4B05000E0007209A4214D81830FFF7B1
:10279000B5FF05280FD10127084C1A3023693B43A8
:1027A00023612E80FFF7AAFF062802D02369BB43CE
:1027B00023613423E360F8BDFEFF070000200240E0
:1027C000044B1A69120603D5034A5A60034A5A6039
:1027D0007047C0460020024023016745AB89EFCD1A
:1027E0008023024A11690B431361704700200240A5
:1027F000124A10B501230C00904214D1FEF790FE4E
:1028000063790F4A002B10D0AA2303401900481EF9
:10281000814129201170002B00D00C3000F0E8FC21
:10282000FEF744FF0023180010BD13782920002B69
:1028300000D00C3000F0F8FCF2E7C046167C000037
:102840002020002070B505004879002800D1CBE099
:10285000664BEB18222B00D9A9E0654C2000FEF74F
:10286000E5FF644BE818212812D8FDF7C1FC3DAB09
:1028700046191C491F4C5528A32B582E5B85315EE9
:102880008D37656B224F25523A687897A11541B470
:102890000123227813434DE00823627813432AE092
:1028A00002232278F6E704232278F3E7082322782C
:1028B000F0E701236278F1E702236278EEE7102364
:1028C0002278E7E720232278E4E740232278E1E733
:1028D000FEF766FA802322785B42DBE70C2322783E
:1028E000D8E703236278D9E701222378934321E0D4
:1028F000082263789343637053E002222378F5E75C
:1029000004222378F2E708222378EFE70122637894
:10291000F0E702226378EDE710222378E6E7202231
:102920002378E3E740222378E0E7FEF739FA7F22B5
:1029300023781340237034E00C222378D6E7032257
:102940006378D7E70122042023785907C90F8A4307
:10295000910083430B430821D2008B439AE7012166
:1029600008006378DA07D20F904302228B430343B7
:10297000410093430B43BEE7012223785906C90F58
:102980008A4392014021E8E7FEF70AFA0122237800
:10299000D9094A407F21D2010B407BE70120FEF795
:1029A0004DFF2000FEF746FFFEF7FAF9002070BD4C
:1029B0000020F4E701222378D906C90F8A431201C7
:1029C0001021CAE7012108002378DA07D20F9043CB
:1029D0008B430343AEE7012263781907C90F8A438B
:1029E0000821D2008B4359E70120E0E70090FFFF68
:1029F000EE220020FF8FFFFFB523584303B20204ED
:102A000007D5803B1BB2D817C0B2C018001240B225
:102A100070478030FAE7000010B5164B1B78DA07D4
:102A20000AD5154B1B785B007F20834203D87E3884
:102A3000002B00D0D8B210BD9A0703D50E4B1B78DF
:102A40009B00F1E75B0703D50B4B1B78DB00EBE743
:102A50000A4B187800280BD0094B1978064B1B78C5
:102A60008842F3D25843C000FDF71CFC83B2DBE779
:102A70000823DFE728200020110C00202720002059
:102A8000100C002010B5154B1A7801231A4207D0FC
:102A9000134B1B789B080120002B0ED0D8B20CE002
:102AA000910703D50E4B1B785B08F4E7520705D559
:102AB0000B4B1B787F208342EDD910BD094A10785B
:102AC0000028EBD0084B1978054B1B788842F1D2CF
:102AD0005843FDF7E7FB83B2ECE7C046282000200F
:102AE0000D0C0020262000200C0C00200100CD3809
:102AF00010B5122810D8FDF77BFB0A10141A3232D9
:102B00003232323232321E23282E3A404400FFF74E
:102B100083FF1E4B4042D87010BDFFF77DFF1B4B5B
:102B2000F9E7FFF779FF194B40429870F4E7FFF798
:102B300073FF164BF9E7FFF7A5FF144B1871EBE78E
:102B4000FFF7A0FF114B4042F8E7FFF79BFF0F4B49
:102B500040425871E0E7FFF795FF0C4BF9E701237E
:102B6000D1398B40094A51780B435370D4E7012384
:102B7000074A11780B431370CEE7054A02231178F8
:102B8000F8E7034A04231178F4E7C046292000201F
:102B900028200020032200B5344B9A56CD2814D1AA
:102BA000002A01DA0022DA709A78D9780A4352B200
:102BB000002A01D12E490A701A795B7913435BB25E
:102BC000002B01D12B4A137000BDCE2802D1002A60
:102BD000E8DCE9E702229A56CF2804D1002AE3DA9A
:102BE00000229A70E0E7D02802D1002AF8DCDBE767
:102BF00004229A56D92804D1002AD5DD00221A7160
:102C0000D2E7DA2802D1002ACEDAF7E705229A566F
:102C1000DB2804D1002AC7DA00225A71C4E7DC2875
:102C200002D1002AF8DCBFE7D1380E28BCD8FDF766
:102C3000D5FA0808080808080808BBBBBBBB0E1477
:102C40001800012181405A788A435A70ACE701206C
:102C500009490A7882430A70A6E7074902200A78E0
:102C6000F8E7054904200A78F4E7C0462920002047
:102C700027200020262000202820002010B500F06A
:102C800087FC0A4B9A78D9780A4352B2002A01D0BD
:102C9000074A10801A7959790A4352B2002A01D0A2
:102CA000044A1080180000F0D3F910BD292000203C
:102CB0002420002022200020062210B500210548F3
:102CC00002F060FE0023044A1370044A1370044AA1
:102CD000137010BD2920002027200020262000206E
:102CE000282000200222825603000120002A0BD156
:102CF00003229A56002A07D104229A56002A03D1A9
:102D000005201856431E98417047000073B5554C76
:102D100006222100684602F03DFE00236D46A370A6
:102D2000E37023716371AB78EA7813435BB2002BD5
:102D30000BD04D4B188800F08DFB4C490B78002BC5
:102D400028D04B4A127890422DDC2B796A791343B4
:102D50005BB2002B0BD0474B188800F07BFB464939
:102D60000B78002B49D0454A127890424EDC29005E
:102D7000200000F091FA002804D12000FFF7B2FFF4
:102D8000002801D0FFF77AFF29000622200002F078
:102D900001FE73BD3A4A16780A2272439042D4DD8E
:102DA00001330B7001E0FF2BFAD10226AE57002E43
:102DB00007D0FFF731FEFF23002E00DDFE3B43432B
:102DC000A3700326AE57002E07D0FFF725FEFF2382
:102DD000002E00DDFE3B4343E37002202056002816
:102DE000B3D00326A657002EAFD0FFF705FEA07084
:102DF0003000FFF701FEE070A7E7224A16780A22AA
:102E000072439042B3DD01330B7001E0FF2BFAD126
:102E10000426AE57002E07D0FFF734FEFF23002E06
:102E200000DDFE3B434323710526AE57002E07D03D
:102E3000FFF728FEFF23002E00DDFE3B43436371B6
:102E400004202056002800D191E70526A657002E21
:102E500000D18CE7FFF7D0FD20713000FFF7CCFDEB
:102E6000607184E7292000202420002027200020F2
:102E7000120C002022200020262000200E0C002012
:102E8000130C00200F0C0020F8B5140042791D002F
:102E900006AB1F78274B002A11D01C7000F078FB7E
:102EA000254B188023002033DBB2072B06D80723DD
:102EB000012023409840C0B2FDF740FDF8BD1E78C8
:102EC000A6422DD11C4B188800F0C4FAC72827D879
:102ED0002C002034AE4215D033002033DBB2072B58
:102EE00006D8072301201E40B040C0B2FDF72EFDDA
:102EF000E3B2072B06D8072301202B409840C0B22D
:102F0000FDF71CFD3800E4B2FDF710FD072CD5D805
:102F1000072301201D40A840C0B2FDF717FDCDE7F3
:102F200023002033DBB2072BC8D8072301201C4025
:102F3000A040F1E73220002030200020204B13B5C4
:102F4000C0180C00062833D8FDF752F9141A040EE5
:102F500020262C0026230093BB331A001949200099
:102F6000FFF792FF002016BD27230093BE331A00FF
:102F70001549F4E72623E02200931449BB33EEE71A
:102F80002723E42200931249BE33E8E72623E222F6
:102F900000931049BB33E2E72723E62200930E4952
:102FA000BE33DCE72823E52200930C49273BD6E714
:102FB0004B79002B02D00022094B1A700120D2E776
:102FC000E883FFFF1A7C00001B7C0000187C0000D7
:102FD000197C00001C7C00001D7C00001E7C000091
:102FE00032200020014B18607047C0463820002076
:102FF0007047704710B500F0C5F901384342584199
:10300000C0B210BD044B10B51B68181E03D01B685E
:10301000181E00D0984710BD38200020044B10B572
:103020001B68002B03D05B68002B00D0984710BDB5
:1030300038200020054B10B51B68002B05D09B687D
:10304000002B02D006220270984710BD38200020C5
:10305000054B10B51B68002B05D0DB68002B02D098
:1030600002220270984710BD382000200A4B07B595
:103070001A8882420FD01880084B1B68002B0AD098
:103080001B69002B07D0694603224871000A88712A
:103090000A7101A8984707BD36200020382000207B
:1030A0000A4B07B51A8882420FD01880084B1B685C
:1030B000002B0AD01B69002B07D0694604224871F7
:1030C000000A88710A7101A8984707BD34200020C2
:1030D000382000200E4B10B51C68FFF78BFF00282E
:1030E00003D00C4B1B787F2B0CD80622A31C00208E
:1030F0009A181978002901D00130C0B201339342E7
:10310000F7D110BD044B1E221B680233EFE7C04607
:10311000040C0020EE220020000C002010B5041E3C
:1031200001D1002010BDFFF765FF00280AD1104B28
:103130001B689A1C08331178A14217D001329A42B9
:10314000F9D1EEE70B4B1B787F2BF0D9E208EF2C7F
:10315000E7D8094B01201B689B189A780723234066
:1031600098401040431E9841C0B2DBE70120D9E7E8
:10317000040C0020EE220020000C0020012200237D
:1031800070B55242851CEC5C8C420BD0561C02D1AF
:10319000002C00D15AB20133062BF4D1531C01D0BC
:1031A0008018817070BD002210B5831C08301C7817
:1031B0008C4200D11A7001338342F8D110BDCB0884
:1031C000EF2907D8C01807231940063B8B408278A7
:1031D000134383707047CB08EF2907D8C018072323
:1031E000012219408A40837893438370704700001E
:1031F00010B50400FFF7FEFE002809D0074B1B782E
:103200007F2B05D9064B21001868FFF7D8FF10BDAA
:10321000044B21001868FFF7B1FFF8E7EE22002009
:10322000000C0020040C002010B50400FFF7E2FEA3
:10323000002809D0074B1B787F2B05D9064B2100AE
:103240001868FFF7C8FF10BD044B21001868FFF78E
:10325000AAFFF8E7EE220020000C0020040C00205A
:1032600010B5FFF7C7FE00280BD0084B1B787F2B4B
:1032700007D91E22064B18680230002102F082FB9B
:1032800010BD044B062218680230F6E7EE2200203B
:10329000000C0020040C002010B54A78447803008C
:1032A0000120944223D102229A56002A03D00224FC
:1032B0000C5794421BD103229A56002A04D00324AF
:1032C0000C570120944212D105229A56002A04D0AC
:1032D00005240C570120944209D100201B795BB2D0
:1032E000834204D004200856C01A431E984110BDE2
:1032F00082B002B0704707B5FFF7FAFF07BD0000C4
:1033000007B505490130C870042201A802F042FB4C
:103310000198FFF7F0FF07BD140C0020032307B549
:103320000449042201A8CB7002F034FB0198FFF796
:10333000E2FF07BD140C002010B5FFF7E1FF10BD40
:10334000012307B50449042201A8CB7002F022FB37
:103350000198FFF7D0FF07BD140C002010B5FFF750
:10336000EFFF10BD07B5431E984105490422887040
:1033700001A802F00FFB0198FFF7BDFF07BDC04693
:10338000140C0020014B98787047C046140C0020A4
:1033900007B505490422487001A802F0FBFA01981C
:1033A000FFF7A9FF07BDC046140C0020014B587859
:1033B0007047C046140C002007B505490422087068
:1033C00001A802F0E7FA0198FFF795FF07BDC04694
:1033D000140C002070477047704710B5FFF7FCFFD2
:1033E00010BD704710B5FFF7FCFF10BD70B500248D
:1033F0002500FFF7EFFFFEF77DFEFFF7ECFF074E1E
:103400002000FEF7CBFD3080431E98410134E4B22A
:1034100005430236052CF3D1280070BD3C20002066
:10342000044B4000C25A012088401040431E98417E
:10343000C0B270473C200020002A07D101328A40E8
:103440001100034B4000C25A8A43C2527047C04623
:103450003C20002010B5040000F09AF8001B80B258
:1034600010BD10B5040000F055F8001B10BD0000A1
:1034700010B504001022002102F084FA054B200050
:103480001968054B1A68054B1B6821606260A360D0
:1034900010BDC046ACF7FF1FB0F7FF1FB4F7FF1F0A
:1034A00010B501F065F900F091FE10BD10B5FDF703
:1034B00027F9024801F0E5F810BDC046A406000057
:1034C00010B5FEF743F8FEF757F8FFF7C9FEFFF710
:1034D000F3FB0020FFF7CAFD0020FFF7E1FDFDF739
:1034E00017F910BD10B572B601F052F90022044B65
:1034F0001860044B1A60044B1A6062B610BDC046D7
:10350000502000204C2000204820002010B5FFF75C
:10351000E9FF10BDF8B500F073FE050001F038F9C1
:10352000134E144A3368C41A13480168A14208D9DB
:10353000124F1168E419124FDB193360114BC9188F
:10354000116004602800166800F062FEFA22002371
:10355000200092000021FCF71BFF00230A4A80187C
:1035600059410023094AFCF7F3FE3018F8BDC04664
:1035700050200020482000204C200020E0060100C0
:1035800020F9FEFF88598F029F860100A086010066
:1035900010B5FFF7BFFF80B210BD0000014B024A1B
:1035A0001A607047FC3F0020EFBEADDE034B186889
:1035B000034BC01843425841C0B27047FC3F002043
:1035C000114152210022014B1A607047FC3F00203C
:1035D00010B5FFF7E3FFBFF34F8F034B034ADA60E9
:1035E000BFF34F8FC046FDE700ED00E00400FA0591
:1035F000BFF34F8F034B044ADA60BFF34F8FC046CF
:10360000FDE7C04600ED00E00400FA0510B5FFF745
:10361000CDFF002819D0FFF7D5FF72B600230B4A63
:103620000B4913609360536001225242CA67C02164
:1036300008484900425083F31488074B1A6882F304
:10364000088862B65B689847FEE710BD10E000E0AE
:1036500004E100E000E100E000C8FF1F01007F225C
:1036600074310B7870B51A400500212A43D15AB243
:10367000002A1BDA4A78022A15D0032A04D0012A2C
:1036800014D100F009FC70BD4C790A79240214436E
:103690000CD1FFF777FE2D4B1870AB660123EB665C
:1036A0002C670120EFE700F017FDECE74A780A2AC3
:1036B0001AD00B2A0CD0092A1DD14A790879120296
:1036C0000243012A17D8224B224CAB660223E6E7BD
:1036D0004B790A791B02134302D18878FFF742FE27
:1036E00000231C00AB66DAE7C878FFF765FE280008
:1036F00000F01EFDC7E7602200249343812B14D104
:103700004B78062B11D14B790A7968681B02466801
:1037100013432800CA788978B047A04201D100201D
:10372000B1E74368AB660368B9E790260A4A63428B
:103730003340D358002B04D1631C0124022BEED05C
:10374000F4E7280098470028F6D0AAE75C2000207C
:103750006020002099370008B40C0020002370B5C9
:103760000B4C74306360C279817912020A4341794B
:103770000579090229438578C078064B0002284361
:1037800000F0B8F920606068002800D0200070BD0B
:103790005420002058200020030010B5743399797C
:1037A000DB79074A1B0210780B43022B04D1012856
:1037B00001D0062802D15078FFF7EAFD10BDC046BF
:1037C0006020002010B50F24054A11784B1C2340BF
:1037D000044C24789C4202D0034C1370605410BDFA
:1037E000142300201523002004230020080010B516
:1037F000052921D8FCF7FCFC16200316162172B609
:10380000134800F029FA134800F026FA62B6124B6A
:103810001B78002B02D00520FFF7D4FF0220FFF712
:10382000D1FF09E0FFF7CEFF72B6094800F0FEF9BC
:10383000084800F0FBF962B610BD72B6044800F00B
:1038400008FA044800F005FA62B60520E7E7C0462A
:10385000300C0020C00C002062200020102210B587
:103860000021044802F08EF80022034B1A70034B2B
:103870001A7010BD042300201423002015230020FB
:10388000F8B50F2501240021234B244A1E78137814
:10389000B34233D1002900D01370F8BD1370204B10
:1038A0001C70204B19780800431E9841C0B2FFF7E6
:1038B00035FDE8E713700022194B1A70FFF700FE80
:1038C000184B19780800431E9841C0B2FFF734FD29
:1038D000D9E71370134B19780800431E9841C0B202
:1038E000FFF70EFDCFE7002113700800F8E7137013
:1038F000FFF726FD2000FFF735FDC4E718000A4F4B
:103900000133385C21002B400528C1D8FCF766FC48
:10391000EFC0E1EBC6D2C0461423002015230020DF
:1039200062200020072400200423002070B5050039
:10393000104800F059F90F4800F06AF90E4C0F4892
:1039400000F052F90D4800F063F90D4AA36D28000C
:103950001340A36501F044F80A4800F092FE2800E5
:10396000094901F02CF88023A26D1B021343A365C3
:1039700070BDC046300C0020005C0040C00C002030
:10398000FF7FFFFF88130000085B0008902343437C
:1039900007B50448181800230093034B00F0BCF946
:1039A0000EBDC046300C00201027000010B50400EA
:1039B000FFF7E8FC08222100002803D10130FFF7BF
:1039C000E5FF10BD0120FAE710B50100202200201C
:1039D000FFF7DCFF10BD10B5010006220020FFF745
:1039E000D5FF10BD10B5010003220020FFF7CEFF68
:1039F00010BD10B5FFF70AFE10BD7047704710B537
:103A0000FFF7F7FF01F068FFFFF7F7FF10BD10B5F4
:103A100001F0A8FFFFF7F2FF10BD10B5FFF79EFC05
:103A200010BD000010B5FFF719FF0348FFF77EFF38
:103A3000024800F026FE10BD8823002088130000F5
:103A400010B50248FFF7CEFA10BDC046180C002092
:103A500070B5FFF715FF0C4C02252378052B0ED00F
:103A600070BDFFF723FDFFF7C1FC002807D023003E
:103A70007C331B881D4202D0200001F043F82378DC
:103A8000052BEED0ECE7C0468823002010B500F0EF
:103A9000B5FA10BDF0B5144B85B01D78002D20D1BE
:103AA00001226C460F2668461A70FFF7E1FC2B00D6
:103AB0000E490F4D5A10A05C5A000709EF5D8A1895
:103AC000977000273040D7705A1C285C52008A1823
:103AD00002339070D770202BECD122330B703F3B18
:103AE0004B7005B0F0BDC04663200020642000206C
:103AF000185B000870B51C00050A032D12D00AD807
:103B0000012D35D000231A00022D01D11E4A3B336E
:103B10001800226070BD212D18D0222D1FD0002347
:103B20001A00F5E70023C0B21A00A842F0D8FCF74B
:103B30005FFB220205081023144AE9E70E23144A0A
:103B4000E6E7FFF7A7FF134A1378E1E7002915D04E
:103B500000231A000129DBD10F4A0933D8E70029D5
:103B60000FD000231A000129D2D10C4AB833CFE775
:103B700012230B4ACCE704230A4AC9E709230A4A5D
:103B8000C6E74423094AC3E74F5B0008395B0008D6
:103B9000295B0008642000207A5B00089C5B000819
:103BA0008A5B00084B5B0008615B0008545C0008FE
:103BB00037B5446B226F1378042B14D1250074356C
:103BC0002978033B8B40128913409BB2002B0AD10A
:103BD000200001A900F017FE021E04D02978019BE5
:103BE000206F00F07CFF37BD1FB503005C33C3645A
:103BF000064B021D0193836F029000930121C36F56
:103C0000D26F00F0DAFD05B000BDC046B13B000840
:103C100072B6030074331B78026F09339B00D3180C
:103C2000586000238830037062B670470123022178
:103C300010B504000372494200F056FD20008C3498
:103C400000F0D3FD2368002B02D0DA681868904793
:103C500010BD0023037270470300020010B504007A
:103C6000743319783832006F00F0E2FE200000F063
:103C7000BCFD0023237210BD0B0009339B00C31849
:103C8000F7B55C6805000E00002C44D072B6230026
:103C9000002288331A70226963699A4202D1E3686C
:103CA000002B19D1B31C9B00EB185B685B691B6888
:103CB000002B11D027008C373B68002B09D001A9BD
:103CC000200000F0A0FD3B6801009F68019A186881
:103CD000B847200000F0A5FD200001A900F093FDE9
:103CE000019B021E12D1B31C9B00EB185B681A6883
:103CF000022A0FD15A69116800290BD01A8A0B00C9
:103D0000013A1340114205D12A00743231002800D3
:103D100000F0E5FE62B6F7BDF7B51C0008AB1B78F6
:103D2000050017000191009372B6036F1B78042BF6
:103D300002D062B60020FEBD060088363378002B24
:103D400003D0013463425C41644262B623003A000E
:103D50002800019900F0A6FD874214D972B64342AB
:103D600058413378022118430123307049422B72A5
:103D7000280000F0B9FC280000F037FD00232B726A
:103D800000F0F4FBE1E7009B002B01D00120D2E71B
:103D9000280000F0C4FDF9E7030072B6016942692A
:103DA000002091420CD1DA68824209D01A6F743334
:103DB0001B78013098401389184080B24342584123
:103DC00062B67047F8B5076806000D001400002FB2
:103DD00009D000F0DDFC786030682200846429009E
:103DE000083001F0D7FDF8BD016810B5002907D0F3
:103DF0008B6C08321364083110001A0001F0CAFD00
:103E000010BD036810B50400002B09D018009A6C8F
:103E10000021083001F0B6FD002223681A605A60C4
:103E200010BDF8B50B780C001500082B0ED89B00C0
:103E3000C6183768002F09D000F0AAFC78603068F7
:103E40002A0085642100083001F0A4FDF8BD10B5FA
:103E500008290BD889004158002907D08B6C0832FB
:103E60001364083110001A0001F094FD10BD70B504
:103E70000500040024352368002B09D018009A6C33
:103E80000021083001F07EFD002223681A605A608C
:103E90000434AC42EFD170BD0200F8B574325379EE
:103EA00011791B02040000250B43012918D89178D1
:103EB000082915D80B4ADBB2D25C012A10D890230E
:103EC0005343094A9B58AB420AD0084E5F681868B2
:103ED0003200B847064B2567A366B36C0135E3662D
:103EE0002800F8BD2C0C0020BC0C0020B8210020BC
:103EF000C02100200368002B07D091001960511EDB
:103F00008A41024B19780A431A7070470422002034
:103F10000368181E02D018688008C0B270470000FD
:103F2000036870B5002B02D10023180070BD72B673
:103F3000036830CB62B6002CF6D000F029FCFA22E0
:103F4000002392000021401BFCF722FA0023054ABF
:103F5000801859410023044AFCF7FAF90023A042D3
:103F60005B41E2E79F860100A08601004B1E072B04
:103F70000BD889004358002B07D091001960511EBF
:103F80008A41024B19780A431A70704704220020B4
:103F900003000020082906D889005B58181E02D0AB
:103FA00018688008C0B2704770B5082902D900238C
:103FB000180070BD89004358002BF8D072B64358E2
:103FC00030CB62B6002CF2D000F0E2FBFA220023E4
:103FD00092000021401BFCF7DBF90023054A801802
:103FE00059410023044AFCF7B3F90023A0425B4186
:103FF000DEE7C0469F860100A0860100F7B5304B82
:1040000000931B78002B56D000231D0090215A42AC
:104010000A402C498C58002C4ED0002B28D1012767
:1040200072B6FBB2019320686369F9B29847431EE8
:104030009841054362B62448FFF7AEFE002812D02F
:10404000A3692068F9B2984700280CD072B61F4EB9
:10405000636832002068F9B2984762B600201C49B4
:10406000B26CFFF793FC0137092FD9D10123CDE7BB
:1040700072B60021636920689847431E9841054342
:1040800062B61448FFF788FE002812D00021A36909
:104090002068984700280CD072B60C4E00213200E0
:1040A00063682068984762B601200949B26CFFF73F
:1040B0006DFC009B1D70F7BD012BD7D1F9E7C04601
:1040C00004220020BC0C0020300C00206C210020B9
:1040D00074210020C00C0020020070B574325379A6
:1040E00011791B02040000250B43012917D8917890
:1040F000082914D80B4ADBB2D25C012A0FD89023CE
:104100005343094A9B58AB4209D05A6918689047F3
:10411000064B25671870A36601231D00E36628007F
:1041200070BDC0462C0C0020BC0C00206821002073
:10413000020070B57432537911791B020400002516
:104140000B43012915D89178082912D80A48DBB207
:10415000C05C01280DD89023434308481B58AB424C
:1041600007D0D2781E691868B047A566E56625674E
:104170000135280070BDC0462C0C0020BC0C00206E
:1041800070477047FEE70000F0B5082000240E4994
:104190004A680E6815008B68AB4210D8D51E002601
:1041A000AB4203D303339B1A9B089E00CB68921942
:1041B000934207D8013810310028E9D1F0BD80CEF4
:1041C00080C5E9E710C2F3E7985C0008012310B549
:1041D000064C23700023636000F0BEFA04490548D2
:1041E00000F0D4F90223237062B610BD182300201A
:1041F000285D00082023002010B500F0D7F810BD7E
:10420000EFF31080C30702D4EFF3058372B6704753
:1042100010B5C00704D4EFF30583DB0501D062B607
:1042200010BD00F0A3F9FAE7024AD36A0343D36250
:104230007047C0462023002010B503689C68A24246
:104240000CD85C688A600B604C602160596099688A
:104250008A1A9A6001235B42836010BD1B68121B9F
:10426000ECE770B504000D00022900D202250226F9
:10427000601900F09EFA00F08BFA041BA54203D8E7
:10428000013635000400F3E7022E02D90120FFF7C2
:10429000CBFF70BDF8B5124B0D00D961114982609A
:1042A000416019691400016048601861022A00D257
:1042B0000224281900F070FA022600F069FA0700BB
:1042C000431BA34206D3741C281900F072FA26007F
:1042D0003D00F2E7022E02D90120FFF7A5FFF8BD4D
:1042E0002023002030230020F8B507000D0000F047
:1042F0004FFA0E4B0E4E1A69B24205D101002A0048
:104300003800FFF7C7FFF8BDDB69C31AEC18A342FA
:1043100000D92C009368A34202D92900FFF7A1FF1E
:10432000220039003000FFF787FFECE72023002050
:104330003023002010B503610023C2604361FFF702
:10434000D3FF10BD10B5174C236998420CD00368F9
:104350004268816813605A609A6852189A60002314
:104360000360013BA36110BD03680F4A23615A60DB
:10437000002303602369934202D100F015FAF2E7AB
:104380009A68816852189A6000F002FA2369E1691C
:104390009B68421A9342E6D9C918091AFFF761FFD0
:1043A000E1E7C0462023002030230020F7B5264D4A
:1043B0002C6900F0EDF9E969A368244E421A934292
:1043C00038D8CB18EB6162680093236813605A6099
:1043D000002323602B69B34201D100F0E5F962B6F6
:1043E0002000E3682169984772B66369002BDED02C
:1043F00000F0CEF9009A0190871A6269BA420BD296
:104400000220FFF711FF00222B69B34209D12000DF
:104410000199FFF73FFFF7BD009BD218019BD21A0D
:10442000F2E7D3199F4200D81A0021003000FFF7AD
:1044300003FFBCE72A69B242EDD0C918091AE86146
:10444000A160FFF70EFFE6E72023002030230020C5
:1044500000238268037503691B6899689142FBD247
:104460005A68036042601060586070470023826899
:10447000037503691B6899689142FBD85A68036009
:10448000426010605860704710B572B6087D05280C
:1044900007D8FBF7ADFE0C060603120E00228B694F
:1044A0001A6001235B4208008B61FFF7D1FF62B6FF
:1044B00010BD8A699368013393604A680B68136082
:1044C0005A60EEE710B5FFF7C3FF10BD064B10B5FD
:1044D000D96808751868026853601A60012202756D
:1044E000D860FBF759FE10BD2023002030B50D4BDE
:1044F0000500DC6887B04B1C10D0230068460A4AD0
:10450000FFF718FF2800FFF7E1FF009B002B02D008
:104510006846FFF717FFA06907B030BDFFF7D6FF69
:10452000F9E7C0462023002089440008044BDA68DC
:10453000196890688B689842804140427047C04635
:1045400020230020084B10B51C68D86822685360EF
:104550001A6001222275DC60FFF788FF010020004D
:10456000FBF71AFE10BDC04620230020054B10B5F6
:104570001A68DB6892689B689A4201D9FFF7E2FFEC
:1045800010BDC0462023002030BFFDE770B50025D8
:1045900004001A4B86B0856201630E00586000F07B
:1045A000B9F8230010332361636101235B42A361E7
:1045B00024606460A560E562E56100F0E9F82B0025
:1045C0000200210022626362343120000C4AE5655A
:1045D000803300F01BF801230A4AE0600375009263
:1045E000726803930192084BB26868460292049382
:1045F000059500F031F806B070BDC04618230020C4
:104600001B5D0008205D00088945000802228B60C0
:104610004B62002308618A8208000B62CB617047FD
:10462000826801691300283B4C3ADA6011614169E4
:104630005161074911620222C1681A7500220548BA
:10464000996018615A75180059621A62DA617047E8
:10465000B90100082023002010B5FFF7E1FFFFF7A4
:1046600031FF10BD10B5034BDB6898610F20FFF7D9
:104670002DFF10BD2023002010B572B6FFF7F2FF0A
:1046800010BD10B5010072B60820FFF72FFF62B60B
:1046900010BD036810B5002B05D000220260180081
:1046A0009961FFF70FFF10BD10B500290AD0074B25
:1046B0004268DB6818605A60136043600420FFF7AB
:1046C00015FF10BD01204042FBE7C046202300201B
:1046D000036810B5984206D01A680260506018004E
:1046E0009961FFF7EFFE10BD70B504000D00206862
:1046F000844200D170BD036823605C608561FFF770
:10470000E1FEF4E7EFF30983203383F3098862B60F
:1047100070470000024A0349136A0B401362704756
:1047200000ED00E0FFFF00FF10B50F300FD072B6B4
:10473000EFF30984203C84F3098880235B04E36160
:10474000FFF7F4FE024B002800D1024BA36110BD1D
:10475000C7010008CA010008024B034A1A60034A55
:104760005A60704780230020102400200040002061
:1047700010B500F079FC00F017FD00F00FF9FFF71D
:1047800046F900F001F810BD10B500F07FFD10BD36
:104790008023DB05586A704780230022DB055863BD
:1047A0001A610232DA60704780230022DB05DA608A
:1047B00070478023DB0558637047043310B50172DE
:1047C0001900C3610023029C83626143C362039B9F
:1047D00051180363049B00604060C4604261026141
:1047E000816104624262436310BD036A10B5C36015
:1047F000436A022143610361002349428362C36229
:10480000FFF772FF10BD4269036910B5934204D1EE
:104810000023C46818009C4201D1100008C80B6036
:1048200010BDC36810B50133C269C36043699B18EA
:1048300082694361934201D3436A43610021FFF7D8
:1048400047FF10BD70B504000D00E368002B07D0D2
:10485000236900201A1DA262E2699B18E36208E046
:10486000237A002B06D129002000FFF71DFF002826
:10487000EBDA70BD02204042FBE7036910B5196016
:10488000C268013AC260C2699B188269036193429F
:1048900001D3436A036100238362036B002B00D0C2
:1048A000984710BDF7B504000E000092019372B650
:1048B0000027A36A002B08D120000199FFF7C2FF4F
:1048C000002802D062B63800FEBDA06AE56A009BEF
:1048D0002D1ADB1B9D4200D91D00402D16D9310039
:1048E000402201F057F8A36A403640334037E26A6D
:1048F000A3629A4204D8E16920000439FFF7BDFFA2
:1049000062B6009B9F42DED272B6D2E731002A0027
:1049100001F040F8A36A76195B197F19E7E710B533
:1049200072B6836A002B06D00269043B991A93423F
:1049300001D0FFF7A2FF62B610BD000010B5040061
:10494000002100F075FF0021200000F05DFF63688A
:104950001B68002B02D0062120009847A368044A58
:104960001340A36000236434A3600633237010BD9A
:10497000FEFFFEFF0200030010B50400763212783D
:104980007E331A7000F002FE63681B68002B02D0B1
:104990000121200098470323237010BD10B500F0BB
:1049A000D1FD10BD012310B5382204000370002191
:1049B0002C3000F0E7FF00236360A36010BD10B54A
:1049C000040072B62022416000210C3000F0DAFFB2
:1049D000200000F059FE0223237062B6002010BDB3
:1049E00070B5040072B600F0B5FD002325006360C9
:1049F000013323700C352C342B68002B10D05869F0
:104A0000002804D002210C304942FFF742FE2B68F7
:104A10009869002804D002210C304942FFF739FE82
:104A2000002308C5A542E7D1FFF7A0FD62B670BD1F
:104A30008B1C9B0070B5C318050050690E00140054
:104A40005A60002803D01422002100F09BFFA069C7
:104A5000002803D01422002100F094FF3100280028
:104A600000F0A0FD70BD000070B505000600040058
:104A70008368104A1035134083602C362B68002B56
:104A800010D05869002804D002210C304942FFF7A9
:104A900000FE2B689869002804D002210C3049429E
:104AA000FFF7F7FD002308C5B542E7D1200000F06D
:104AB00017FE70BD0100010070B501248C404589CE
:104AC0002C4344818C1CA40004196468A4692360ED
:104AD0000023A2606360E36000F04EFE70BD70B51D
:104AE00001248C4005892C4304818C1CA4000419EA
:104AF0006468646923600023A2606360E36000F07F
:104B00005FFE70BD037870B5052B0AD11025054CEA
:104B1000C820236C2B432364FFF7B3FD236CAB4306
:104B2000236470BD005C0040F8B502230500060058
:104B3000037000230400C367C36683600C352C3602
:104B40002B68002B13D072B62B685869002804D04C
:104B500002210C304942FFF79CFD2B689869002820
:104B600004D002210C304942FFF793FD62B60027C2
:104B700080C5B542E4D1230064331F70200000F0EB
:104B800065FD63681B68BB4202D03900200098476E
:104B9000F8BD037870B50400052B29D002008032DF
:104BA00013700523037043681B68002B01D0042198
:104BB0009847250000230C35A3602C342B68002B6C
:104BC00013D072B62B685869002804D002210C302B
:104BD0004942FFF75EFD2B689869002804D0022146
:104BE0000C304942FFF755FD62B60435A542E5D1C8
:104BF00070BD017810B5052908D1030080331B78FA
:104C0000037043681B68002B00D0984710BD00005C
:104C1000F7B50600643633780400002B06D08368AD
:104C2000A34A134083600023C366337027007437A0
:104C30003A0000212000019700F088FD63689B681E
:104C4000002B0AD1019B1A78602315001D401A42DF
:104C500024D02000FFF772FEF7BD200098470028FF
:104C6000F0D023007A331A785B78E16E1B0213438D
:104C7000994201D91900E366019B1B787F2B00D86C
:104C800007E1002900D1FAE00923337072B6002150
:104C9000E36EA26E2000FFF722FFF8E023007F21E1
:104CA00075331B780A401B021343824A934200D19A
:104CB000CDE026D880225200934256D00DD8012B49
:104CC0004DD0022B00D191E0002BC2D122007C32CA
:104CD000A2660222E2662367C3E781225200934262
:104CE00000D19CE0FF32FF329342B2D123007633F1
:104CF0001B78012BADD122007C321188DB180B43CD
:104D00003EE080221201934243D020D8A022D2005C
:104D100093423AD0684A9B18012B9AD823007833E3
:104D20001A785B7821001B021343220060687632F8
:104D3000406877310700127820000978B8470028CA
:104D400000D186E74368A3660368E3661BE0902210
:104D50001201934222D0594A934200D079E7584B2E
:104D6000A3660223E3660023B5E7230076331B78AE
:104D7000012B00D06DE7220002217C3213888B4387
:104D80001380A566E56625676BE74E4BA566E5666D
:104D9000A1E723007F33A3660123D6E72378042B02
:104DA0000FD172B62000FFF75FFE62B62300032129
:104DB0007F331D70636821701B68002B01D02000B9
:104DC0009847230076331B78002B0BD022007F32CC
:104DD00013700423237063681B68002B02D0022128
:104DE000200098470023A366E36674E723000F21A1
:104DF00078331B78200019405BB2002B0CDA00F0EE
:104E000095FC012806D0022800D022E72E4BE06650
:104E1000A366A8E72D4BA3E700F074FCF1E723009D
:104E200076331B78002B00D013E7230078331B78F0
:104E30000F22190011401342D4D05BB22000002B86
:104E400002DA00F021FDCDE700F004FDCAE72300FF
:104E500076331B78002B00D0FBE6230078331B78D9
:104E60000F22190011401342BCD05BB22000002B6E
:104E700002DA00F0DDFCB5E700F0C6FCB2E714236F
:104E8000337072B60B000A002000FFF715FE62B601
:104E9000E2E6002906D01523337072B60021E36ED6
:104EA000A26EF1E70B23337072B60B000A00F1E635
:104EB000FEFFFEFF0203000000FAFFFF020C0000ED
:104EC000385D000875490008365D0008345D00084B
:104ED00070B505006435040028780B2807D8FBF767
:104EE00087F9082F2F2F2F2F082F2F0C253015284B
:104EF00026D12000FFF722FD22E023007A331A7822
:104F00005B78E06E1B02134398420FD2E368198A64
:104F1000FBF7BEF9002909D172B60B000A00200088
:104F2000FFF7DDFD62B60A232B7009E014232B7016
:104F300072B6002320001A001900FFF7BDFD62B60B
:104F400070BD236F002B01D020009847A368034A4F
:104F50001340A3600023E366E6E7C046FEFFFEFFC2
:104F600070B5050064352B780400142B19D00CD8CB
:104F7000062B06D002D8002B03D070BD0A3B012BB4
:104F8000FBD82000FFF7DAFCF7E7152BF5D10A3B39
:104F90002B7072B600231A001900FFF7A0FD62B64D
:104FA000EBE7C3689B695B68002BE6D1036F002BBE
:104FB00000D09847A368034A1340A3600023E36628
:104FC0002B70DAE7FEFFFEFF0322F0B5FF26C025B7
:104FD0000240D2009640890191400A4F83089B000D
:104FE000DB19AD005C591F22B4430C435C51012313
:104FF00002409340C02240098000C01952008350F3
:105000000360F0BD00E100E01F23012203409A404D
:1050100030B543090B4C0C4D9B0019195B19DA672D
:10502000C0235B00CA5003218308084088409B00CE
:105030001B19C024FC318140A4001A598A431A511B
:1050400030BDC04600E100E004E100E010B50321FE
:105050000520FFF7B9FF03210620FFF7B5FF032165
:105060000720FFF7B1FF10BD224B234A996A10B504
:105070000A43FC219A629A6AC9030A409A629A6AB0
:105080001A690122002152421A611A6919611A69CA
:10509000D8681A4A02438020DA60DA68C003024006
:1050A000DA60DA688022D86952050243DA61DA6987
:1050B000802213485200046822430260C0201A6A0A
:1050C000800002400138FF38824203D08022520221
:1050D0001A6219628022196A1202114207D18021D4
:1050E000186A890001431962196A0A431A62FFF7B4
:1050F000ADFF10BD00100240FFFF81FFFFFFBFFFAB
:10510000007000400122264B19680A431A600222EF
:1051100019681142FCD003215A688A435A600C2254
:105120005968080010401142FAD1F9211A680A4062
:105130001A6001225860596B0A435A630222596B64
:105140001142FCD00122596A0A435A620222596A6A
:105150001142FCD0A02100228903DA6259601A634F
:105160008022196852040A431A6080229204196846
:105170001142FCD011210B4A11601039106808420D
:10518000FCD0022259680A430C215A605A680A402E
:10519000082AFBD19969073A0A439A619B697047CB
:1051A00000100240002002407047F0B513000325B4
:1051B000012487B02B40039393081C40D3082B4055
:1051C000019353092B4002930F23D20913400593F7
:1051D00000230094039C0122114230D001259D4000
:1051E00042680727AA43009D1F402A434260826805
:1051F0005D0004922A00032595402A00AC46049DD8
:10520000BF0095432A00019D059E2A4365468260A2
:10521000C268BE40AA43029D2A43C2600F22BA4020
:105220001700039A022A1DD1072B16D8026ABA4327
:105230003243026265460268AA432243026049087B
:1052400021D0009AA40052000092019A01339200EA
:105250000192029A92000292BDE7426ABA43324337
:105260004262E7E765460268AA4322430260072BD1
:1052700004D8026ABA4332430262E0E7426ABA43A0
:1052800032434262DBE707B0F0BD000001220F4B62
:1052900010B5D9690F201143D9610D49DB698B68BD
:1052A00013438B608023E021DB05FF319962E139F4
:1052B000FF39D962002199615963D96059605A61F7
:1052C00002311A60FFF780FE10BDC0460010024098
:1052D000005801408022D2051369D16810B50B40F7
:1052E000D9B2C94311619B0703D572B6FEF784FF9B
:1052F00062B610BD10B57446FFF7ECFF2000FFF753
:1053000013FA10BD0F4BF0B51B6D0F4CC0001B19ED
:10531000C01803888E181B191D0014004280012C30
:1053200006DC50084000824201D00A5C1A52F0BDEF
:10533000301B07784078023C000238432880023551
:10534000EDE7C046005C0040006000407346F0B5E9
:10535000754E87B0756C0593EB4373646B0502D58E
:105360007248FFF7E1FB2B0506D50823326C6F4826
:1053700013433364FFF70DFCEB0409D5B36C1B0436
:1053800006D40822336C694893433364FFF731FC39
:10539000AB0505D565484368DB68002B00D098470E
:1053A00080231B021D4204D10598FFF7BDF907B009
:1053B000F0BD0F232B400193019A5C4F0232029201
:1053C00092009C00BA18584B5268E418944623681F
:1053D0005749ED063ED4536922681D680A40802172
:1053E00009020A43226019695A688A185A60A81A81
:1053F000954215D06246128A824200D9020098680E
:105400001A61411899606B461879FFF77BFF494A8A
:105410002368134030225A40474B1343236028E04F
:105420000122019B9A403B8993433B8163469B68E1
:10543000002B03D06A4638001179984772B60021D4
:10544000029B9B00FB185B6858690C30FFF721F941
:1054500062B60EE02268114080220A4322606A464A
:10546000127903921B0506D56346110038005B686C
:105470009847756C94E76346316D30489A69019B93
:105480000918DB005B18998809180291DB8890687D
:105490009B059B0D1F000490012F36D85808400033
:1054A000834204D00499029D0918285A0870916813
:1054B000C91891605168C91851601168C91A116002
:1054C000118A013989B211826246528A9A4201D800
:1054D000002922D10122019B144C9A4063899343F5
:1054E0006381019B9D1CAB00E3185B68DB68002BAC
:1054F00002D020000399984772B6AD006419636822
:105500009B69180059680C30A0E70D88023F0570B0
:105510002D0A457002310230BEE7094A2368134064
:10552000C022920177E7C046005C0040882300203B
:105530000F07FFFFBF87FFFF808000000060004073
:105540008FB7FFFF10B50248FFF72CFA10BDC04619
:1055500088230020037810B5012B0ED0074B98420A
:105560000BD11F20FFF750FD0322054B05491A649C
:10557000054BDA690A40DA61DB6910BD8823002037
:10558000005C0040FFFF7FFF0010024080237E3060
:1055900002785B421343024ADBB2D3647047C046D1
:1055A000005C0040F7B503228B1C9B00C3185C68AD
:1055B0002368134093423BD05A4253415B02204A36
:1055C000204E126DCD009219AD186269002A10D0DC
:1055D0000700002208376A80FA6F0192228A561C5F
:1055E000012296433200019E9219FA6720222E80F2
:1055F0001343A269002A13D0648A661E3E2C1AD96E
:10560000114A7609B602324301260830EA80013495
:10561000C26FB443A418C467AA80802292011343C6
:1056200007488A00121810680B4310601360F7BD1A
:10563000C023DB00C3E70122324301325202E3E719
:10564000005C0040006000400080FFFF00218023DC
:105650000B4A10B511655164D3644368DB685C1E66
:10566000A341BC245B0224021B19136403004022E3
:105670000833DA67034BC360FFF794FF10BDC046E1
:10568000005C00403C5D000870B504000078012813
:105690001CD10F4B9C4216D180220E4B1204D969AB
:1056A0000D4D1143D961D96919690A431A611A6903
:1056B0000A490A401A611B69032128641E30FFF75A
:1056C00083FC00232B642000FFF7C0FF70BDC046A1
:1056D0008823002000100240005C0040FFFF7FFF95
:1056E0004023012200210830C367054893001B189E
:1056F0001868013218601960082AF6D17047C04650
:10570000005C0040074B8900C958C0220B00920181
:1057100013401800114204D0034A9818431E9841C0
:1057200001307047005C004000F0FFFF064B89002D
:10573000C95830220B0013401800114203D0103B0F
:105740005A1E9341581C7047005C0040084B0948A2
:105750001B6DC9001B18C9188B881B181000083056
:1057600019880233118002329042F9D17047C04645
:10577000005C0040006000408B1C9B00C018426829
:1057800070B595690C002B680120002B04D0518A5C
:1057900058180138FAF740FD064BA400E4182368B6
:1057A000054A28821340C02292015A40034B1343FA
:1057B000236070BD005C00408FB7FFFF8080000059
:1057C0008B1C9B0010B5C01842680C005369128AEC
:1057D00019688A4200D90A00200099681A61FFF707
:1057E00091FD064BA400E4182368054A13403022BB
:1057F0005A40044B1343236010BDC046005C004078
:10580000BF87FFFF80800000064B8900C9180B6826
:10581000054A1340802252015A40044B13430B6047
:105820007047C046005C00408FB7FFFF80800000DB
:10583000054B8900C9180B68044A134010225A40CE
:10584000034B13430B607047005C0040BF87FFFFB2
:1058500080800000C022094B8900C9180B689201A2
:105860001340934208D00B68054A134080229201EE
:105870005A40044B13430B607047C046005C004025
:105880008FB7FFFF808000003022084B8900C918C5
:105890000B681340934207D00B68054A134020223F
:1058A0005A40044B13430B607047C046005C0040F5
:1058B000BF87FFFF808000004B6843608B68836078
:1058C000CB68C3600B6943614B6903628B694362B8
:1058D0000B68036070470000FC22154BD203996AE5
:1058E00010B511439962996A12480140902099625B
:1058F000996A5969C0050A435A610F495B69FFF704
:10590000DBFF0E490E48FFF7D7FF0E490E48FFF7A1
:10591000D3FF0E490E48FFF7CFFF0E490E48FFF7A1
:10592000CBFF0E490E48FFF7C7FFFFF7EBFB10BD9B
:1059300000100240FFFF81FF605D00087C5D0008F1
:1059400000040048985D000800080048B45D0008A5
:10595000000C0048D05D000800100048EC5D000815
:10596000001400487047704730B500240139A24246
:1059700001D1002005E0035D01340D5DAB42F6D09E
:10598000581B30BD03008218934200D17047197034
:105990000133F9E7002310B59A4200D110BDCC5C69
:0659A000C4540133F8E7D6
:1059A80035001E001F0020002100220023002400D3
:1059B8002500260027002D002E00310035004C0060
:1059C8002B0014001A000800150017001C0018000E
:1059D8000C00120013002F0030002A0000004B00BA
:1059E800390004001600070009000A000B000D002A
:1059F8000E000F00330034002800000000004E00A5
:105A0800E1001D001B000600190005001100100030
:105A1800360037003800E500520000000000490059
:105A2800E000E300E2002C00E300000000000000BA
:105A3800E600E400500051004F00000000000000A4
:105A4800E200E900EA00B500B600B700CD00830126
:105A5800CC008A019201940121022302240225022A
:105A6800260227022A02B300B4006F0070009F01CB
:105A7800CB019F02A002E200E900EA00B500B600EF
:105A8800B700CD008301CC008A0192019401210264
:105A9800230224022502260227022A02B300B400A8
:105AA8006F0070009F01CB019F02A0020F04004805
:105AB8000E0400480D0400480C040048000000488B
:105AC800010000480A040048020400480104004894
